:1000000002007602058AFFFFFFFFFF0205BAFFFF2D
:10001000FFFFFFFFFFFFFFFFFFFFFFFFFFFFFFFFF0
:10002000FFFFFFFFFFFFFFFFFFFFFFFFFFFFFFFFE0
:10003000FFFFFF0205F0FFFFFFFFFF0205ECFFFFE0
:10004000FFFFFF020673FFFFFFFFFF02067BFFFFBC
:10005000FFFFFF020677FFFFFFFFFF020682FFFFA1
:10006000FFFFFFFFFFFFFFFFFFFFFFFFFFFFFFFFA0
:10007000FFFFFF02087175D0007581BF7518FF750D
:10008000198302008A00000080FB1200D2B900032D
:100090000200CCE4908000786679018002F0A3D859
:1000A000FCD9FA908065AA82AB8390242A781479CF
:1000B000018015E493A3AC82AD838A828B83F0A385
:1000C000AA82AB838C828D83D8E9D9E712217C1276
:1000D0000085790122000000000100000006FF08F1
:1000E000FF66FF68FF000102030405060708090A0E
:1000F0000B0C0D0E0F101112131415161718191AD8
:100100001B1C1D1E1F202122232425262728292AC7
:100110002B2C2D2E2F303132333435363738393AB7
:100120003B3C3D3E3F40414243444546484B4E5197
:10013000545557595B5D5D5E5F60616162626364E7
:100140006464646464646565656565656666666661
:10015000666666676767676767686868686868682B
:100160006969696969696A6A6A6A6A6A6A6B6B6BF2
:100170006B6B6B6C6C6C6C6C6C6C6D6D6D6D6D6DBC
:100180006E6E6E6E6E6E6E6F6F6F6F6F6F70707083
:10019000707070707171717171717272727272724D
:1001A0007273737373737374747474747474757515
:1001B00075757575767676767676767777777777DE
:1001C00077787878787878787879797979797979A9
:1001D000797A7A7A7A7A7A7A7A7B7B7B7B7B7B7B79
:1001E0007B7C7C7C7C7C7C7C7C7D7D7D7D7D7D7D49
:1001F0007D7E7E7E7E7E7E7E7E7F7F7F7F7F7F7F19
:100200007F808080808080808081818181818181E8
:1002100081820A00000005000000581B00000F004A
:1002200000006400000088130000C4090000C3E758
:10023000960809E7960809E7960809E79622E4CFA9
:10024000C0E0E4CEC0E0E4CDC0E0E4CCC0E075F0B6
:1002500020C3E633F608E633F608E633F608E6335D
:10026000F6181818EC33FCED33FDEE33FEEF33FFD8
:10027000C3EC9709ED9709EE9709EF971919194003
:100280000FFFEC97FC09ED97FD09EE97FE19190693
:10029000D5F0BEECF709EDF709EEF709EFF71919FC
:1002A00019D0E0FCD0E0FDD0E0FED0E0FF22E493E6
:1002B00026F60874019336F60874029336F608742D
:1002C000039336F622E026F008A3E036F008A3E018
:1002D00036F008A3E036F022C3E096F008A3E096DB
:1002E000F008A3E096F008A3E096F022E0F608A359
:1002F000E0F608A3E0F608A3E0F622E493F608741B
:100300000193F608740293F608740393F622E6F05C
:1003100008A3E6F008A3E6F008A3E6F022CAC0E0CE
:10032000E6F0A308DAFAD0E0FA22B90010BB000820
:10033000E88AF084F8AAF022E4FBC8FA22EB7022E3
:100340007B10C833C8C933C9335007C39AC3DBF223
:1003500080069A50012ADBEAC833F4C8C933F4C9CD
:10036000FA2275F008E4C833C8C933C933C99AC939
:100370009B5004C92AC93BD5F0ECFBC833F4C8E450
:10038000C9FA22600C08C6C313C618C613C6D5E046
:10039000F422700422600D18C6C333C608C633C6E3
:1003A000D5E0F41822251810AF08F51840021519E9
:1003B0008008F51840021519D2AF22C0D0251810B8
:1003C000AF08F518500205198008F51850020519F4
:1003D000D2AFD0D0222518F58210AF08F518400210
:1003E00015198008F51840021519D2AF8519832216
:1003F0002518F582E43519F583222518C582C0E059
:10040000E51934FFC583C0E0E518C3958224F910CF
:10041000AF0885831985821880088583198582181D
:10042000D2AFCEF0A3E520F0A37808E608F0A3DE73
:10043000FAEFF0A3E58124FBF8E608F0A3E608F064
:10044000A30808E608F0A3E608F0A315811581D0FB
:10045000E0FED0E0F815811581E8C0E0EEC0E022B2
:10046000851983851882E0A3FEE0A3F5207808E0D3
:10047000A3F608DFFAE0A3FFE0A3C0E0E0A3C0E03A
:10048000E0A3C0E0E0A3C0E010AF08858218858338
:10049000198008858218858319D2AFD083D0822233
:1004A00074028000C0E0F4041203D5D0E012031DF2
:1004B00022D083D082E9C0E0E493A3C386F0C5F0E4
:1004C00095F0F908E493A386F0C5F095F0700BE47D
:1004D00093A3C3994005E9048002A3E475F002A444
:1004E0002582F582E5F03583F583D0E0F9E493A326
:1004F000C0E0E493C0E02274F81203FA7408120317
:10050000F0E0FEA3E0FF740A1203F0E0F8A3E0F9C4
:1005100074016A7001EB7031ECFAEDFBC3EA9EEBFB
:100520009F506288828983E0C0E0EA2400F582EB74
:1005300034F4F583D0E0F088828983A3A882A9836C
:10054000EA24010AEB340080D290FFF074E0F0F06E
:10055000A37493F0ECFAED802488828983E0C0E0F4
:10056000EA2400F582EB34F0F583D0E0F08882894C
:1005700083A3A882A983EA24010AEB3400FBC3EA1F
:100580009EEB9F40D47F01020460C0E0C0D0C082D7
:10059000C083758601908001E004F0908000E0F552
:1005A00083908001E0F58200758600E0F5F775B56F
:1005B00001D083D082D0D0D0E032C0E0C0D0C082A1
:1005C000C083758601908000E0F583908001E0F59E
:1005D00082E5F6758600F0758601E004F075860008
:1005E00075B502D083D082D0D0D0E03275B58032DC
:1005F000C0E0C0D0C082C083E5F454F0601F24F096
:10060000601B24F0601724F0601324B0600424F011
:100610007020758381E5F4540F2470801CE5F490FC
:10062000800F700474018001E4F075838185F48289
:1006300080097583FFE5F4547FF582758601E583B3
:10064000908000F0E582908001F075860000E0F572
:10065000F775B540D083D082D0D0D0E03275F2406B
:1006600053AEF043AE0575B5C375F10043B24343D5
:10067000B6432275B9013275B9043243C10375B965
:10068000023243C10C75B9083274F11203FA8A08B8
:100690008B098C0A8D0B9000D5780C1202FB800818
:1006A0009000D9780C1202AE7808790C12022E4014
:1006B000EF7F0802046075B1007587FF758990753A
:1006C0008A82758E80758B8175938075A5FF75A65E
:1006D000FF75A7017591FF75920B75929075B10129
:1006E0002275A60075800075906075C00075A80021
:1006F00075A90075AA0075AB0075AC0075AD0075E5
:10070000A10075A20075A300D2B02274F21203FA00
:1007100074FB1203A57A0080278A82A882741028AD
:10072000F58274F43400F583E0C0E0851882851901
:1007300083E58228F582E5833400F583D0E0F00A72
:10074000EAC3940A40D374051203F0E0F860087419
:10075000061203F0E070057A0002086574FF686015
:1007600012740848F59274071203F0E04480F59281
:10077000020863750C00750D0074021203F0E0F5B9
:100780000E74011203F0E0FFE50E6F7004EFFE80BF
:100790002C850E08EFC39508FA95E0FB121850C39C
:1007A000EA9402EB9400A2D265D03340087592908F
:1007B000750C018008EFC3950E40D2AE0EE50C70AB
:1007C00034EE602114601914601114600E14601A64
:1007D00014601C146019146016801A7592908015AC
:1007E0007592A080107592B0800B7592808006750E
:1007F0009280750D017401650D85188285198370CD
:1008000025E08F08C39508F895E0F9E82404E93459
:1008100000C39400A2D265D03350047E008009E06A
:10082000C39F24048001E0FEEE6035146032146042
:100830002A14602214600B14600D14600F146011F0
:10084000802175920B801C75920A80177592098021
:1008500012759208800D75920C800875920D8003B8
:1008600075920E7A017B0074051203BB7F070204A8
:1008700060C0E0C0D0E8C0E0E9C0E0C082C08374DE
:100880000865D175D118702D75A51075DE0375E159
:10089000400000000075D11090FF28E0908048F0E3
:1008A000A3E4F090FF29E0F9908049E049F09080BE
:1008B000457401802575A50875DE0475E1400000CA
:1008C000000075D10890FF26E0908046F0A3E4F088
:1008D00090FF27E0F9908047E049F075B940D08358
:1008E000D082D0E0F9D0E0F8D0D0D0E03274F51268
:1008F00003FA75D30075D40375D71075D63F75E22A
:100900000075EA7475E30075EB7075ED1F90FF9349
:100910007460F0A37440F090FFA67415F090FFA8E7
:10092000F075EE0075DF0275DB0675A50875D11848
:1009300075DE0390021278081202FBAA08AB09AC1C
:100940000AAD0B1206897F0402046075E140EA24B7
:1009500080F5DA43B7402274F21203FA74FC1203F2
:10096000A58A0C8B0DECFEEDFF750E000209FFE968
:10097000C333FAE433FB851882851983E5822AF5AF
:1009800082E5833BF583E0FCA3E0FD74402AF58219
:1009900074803BF583ECF0A3EDF074382AF5827493
:1009A000803BF583ECF0A3EDF074202AF58274808F
:1009B0003BF583E4F0A3F074282AF58274803BF5BC
:1009C00083ECF0A3EDF0742C2AF58274803BF58360
:1009D000ECF0A3EDF074302AF58274803BF583ECE3
:1009E000F0A3EDF074342AF58274803BF583ECF0CB
:1009F000A3EDF009E9C39402500302096F050EE567
:100A00000EC39405790050618055E9C333FCE4338B
:100A1000FD74462CF58274803DF583E0FAA3E0FB7B
:100A2000851882851983E5822CF582E5833DF5835F
:100A3000EAF0A3EBF074E12CF58274003DF583E459
:100A400093C0E0740193F583D082EAF0EBC0E0E557
:100A5000822401F582E5833400F583D0E0F009E9D2
:100A6000C3940240A57900808B020AF3E50EC333DC
:100A7000F50AE433F50BEA75F00AA4F508E5F0F59C
:100A800009E50C2508F508E50D3509F509E5082502
:100A90000AF508E509350B85080AF50BEAC333F5B5
:100AA00008E433F509851882851983E5822508F560
:100AB00082E5833509F583E0F508A3E0F509850AA9
:100AC00082850B83E508F0A3E509F0850A82850B92
:100AD00083E0F508A3E0F509E4F50AF50B8C828DB7
:100AE0008378081202C5050EE50EC3940550030273
:100AF0000A6C09E9C39402502E8982AA827B008A7B
:100B0000088B0974027808120392EE2508FCEF3571
:100B100009FD9000D578081202FB8C828D8378083D
:100B200012030E8B0E80C1908044E4F0908012F08E
:100B3000A3F0F98024E9C333FAE433FB74182AF5EF
:100B40008274803BF583E4F0A3F0743C2AF5827450
:100B5000803BF583E4F0A3F009E9C3940240D67426
:100B6000041203BB7F0702046074E91203FA74F8ED
:100B70001203A574021203F0EAF0A3EBF0851882C9
:100B8000851983ECF0A3EDF0741F1203F0E0F51269
:100B9000A3E0F513751000800F88828983E024FF9D
:100BA000F0A3E034FFF00510E510C3940240030207
:100BB0000D7C85108285820E750F00850E0CE50C6C
:100BC000C333F50CE433F50D7420250CF87480352F
:100BD0000DF988828983E0FAA3E0FBEA4B70BA74CE
:100BE0003C250CF87480350DF97469250CFE748071
:100BF000350DFF7440250CF5087480350DF509742A
:100C0000021203F0E0250CF50AA3E0350DF50B8583
:100C10000A82F583C082C083850882850983C082E9
:100C2000C0838E828F83E0FAA3E0FBD083D082E082
:100C3000C39AFAA3E09BFBD083D082C3E09AA3E0DF
:100C40009B88828983502EC3E0941EA3E094008881
:100C5000828983500AE02401F0A3E034008019E483
:100C6000F0A3F0850A82850B83E0FAA3E0FBA910CC
:100C7000120E288004E4F0A3F08E828F83E0F8A3A4
:100C8000E0F9850882850983E0FEA3E0FFEEC398C2
:100C9000FCEF99FD850A82850B83E0FAA3E0FBC394
:100CA000EC9AED9B4003020BA6850A82850B83EE2E
:100CB00028F8EF39F9C3E098A3E0994003020BA6A6
:100CC000E50E75F00AA4F8A9F0851882851983E06D
:100CD00028FAA3E039FB7402780E120392E512257C
:100CE0000EF8E513350FF9E8FCE9FD908044E0C308
:100CF00033F8E433F9EA28F582EB39F583E0F514AB
:100D0000A3E0F515E4F516F5178C828D837814129F
:100D100002D8850A82850B83E0F514A3E0F5158CD3
:100D2000828D8378141202C5850A82850B83E0FECA
:100D3000A3E0FF908044E0C333F8E433F9EA28F5F8
:100D400082EB39F583EEF0A3EFF08C828D8378147B
:100D50001202EC90021678081202FB78147908123D
:100D6000023E74041203F0E582250CF582E583351A
:100D70000DF583E514F0A3E515020BA5908044E082
:100D80000475F00584E5F0F0908012E09428A3E06B
:100D90009400908012407EE4F0A3F0F510E510C3BB
:100DA0009402507AE510C333F8E433F9742028F53F
:100DB00082748039F583E0FAA3E0FBEA4B70527449
:100DC000041203F0E58228F582E58339F583E0FA21
:100DD000A3E0FB746928F582748039F583E0FCA3F5
:100DE000E0FD744028F582748039F583E0F8A3E0D3
:100DF000F9E8C39CFEE99DFFC3EE9AEF9B5012E811
:100E00002CF8E93DF9C3EA98EB995005A910120EA8
:100E10002805108088E02401F0A3E03400F0740875
:100E20001203BB7F10020460C082C083E9C333FC9D
:100E3000E433FD74402CF58274803DF583EAF0A321
:100E4000EBF074E12CF58274003DF583E493FC74BF
:100E50000193FD8C828D83EAF0A3EBF0D083D082E6
:100E60002274F81203FAEA2402F8EB3400F9EA24B7
:100E700004FCEB3400FD8C828D83C082C0838882A9
:100E80008983E0FEA3E0FFD083D082C3E09EA3E08D
:100E90009F404E88828983C082C0838A828B83E090
:100EA000FEA3E0FFD083D082C3E09EA3E09F400E6C
:100EB00088828983E0FAA3E0FB7F010204608A82D2
:100EC0008B83C082C0838C828D83E0F8A3E0F9D04D
:100ED00083D082C3E098A3E09940408C828D8380C8
:100EE000D38C828D83C082C0838A828B83E0FEA3F1
:100EF000E0FFD083D082C3E09EA3E09F50DD8A82D2
:100F00008B83C082C08388828983E0FCA3E0FDD00C
:100F100083D082C3E09CA3E09D50958A828B83801E
:100F20009374E91203FA74EE1203A5750C00020F14
:100F3000DFE50CC333F8E433F9744628F582748096
:100F400039F583E0FEA3E0FF743828F58274803918
:100F5000F583EEF0A3EFF074E128F582740039F523
:100F600083E493C0E0740193F583D082AA82AB83BB
:100F7000E0FC740E1203F0E58228F582E58339F572
:100F800083ECF0A3E4F0740E1203F0E58228FCE594
:100F90008339FDEA2401F582EB3400F583E0FB8C14
:100FA000828D83A3E04BF08C828D83E0FAA3E0FB7B
:100FB000740B28F582748039F583EAF0A3EBF074A2
:100FC0000728F582748039F583EEF0A3EFF0745BA7
:100FD00028F582748039F583EEF0A3EFF0050CE577
:100FE0000CC394025003020F31750C0002109EC313
:100FF000EC9AED9B500F850882850983E024FFF071
:10100000A3E034FFF0ECF8EDF9E8C333F8E933F985
:10101000850882850983E028F8A3E039F97A037B03
:101020000012032A74041203F0E8F0A3E9F0743408
:101030002EF874803FF9880E890F74041203F0E0D3
:101040002CF8A3E03DF9850E82850F83E028F8A3F4
:10105000E039F97A037B0012032A88108911AA105B
:10106000AB11850882850983EAF0A3EBF0850E8237
:10107000850F83ECF0A3EDF074041203F0E0F8A305
:10108000E0F9850A82850B83E8F0A3E9F074072E66
:10109000F58274803FF583EAF0A3EBF0050CE50CD4
:1010A000C394024003021169E50CC333FEE433FF2D
:1010B00074382EF50874803FF509850882F583E0C1
:1010C000F50AA3E0F50B74041203F0E50AF0A3E5BA
:1010D0000BF074282EF874803FF988828983E0F53C
:1010E0000EA3E0F50F74061203F0E50EF0A3E50F72
:1010F000F0742C2EFA74803FFB8A828B83E0FCA371
:10110000E0FD74081203F0ECF0A3EDF08A828B830B
:10111000E50EF0A3E50FF088828983E50AF0A3E5E8
:101120000BF074041203F0AA82AB83120E618508DF
:1011300082850983EAF0A3EBF074302EF874803FC7
:10114000F9880A890B8882F583E0FCA3E0FDC3EAF5
:101150009CEB9D4003020FEF850882850983E02404
:1011600001F0A3E034000210047508007509007551
:101170000C00805788828983E4F0A3F08512828571
:101180001383F0A3F0744B2EF58274803FF583E453
:10119000F0A3F0746E2EF58274803FF58374FFF037
:1011A000A3740FF0744F2EF58274803FF583E4F042
:1011B000A3F074142EF58274803FF583E4F0A3F05D
:1011C000851282851383F0A3F0050CE50CC394020D
:1011D0004003021758E50CC333FEE433FF740E12CC
:1011E00003F0E5822EF582E5833FF583E0F8A3E086
:1011F000F974021203F0E8F0A3E9F074382EF51642
:1012000074803FF517851682F583E0F510A3E0F5AD
:101210001174021203F0E0F8A3E0F9E510C398F8A6
:10122000E51199F9740A1203F0E5822EF582E5833F
:101230003FF583E8F0A3E9F0740A1203F0E5822E8B
:10124000F582E5833FF583E0F50AA3E0F50B7453DF
:101250002EF51474803FF51574032EF874803FF951
:10126000851882851983E8F0A3E9F0C3E50B9400A3
:10127000A2D265D0335062851882851983E0F8A325
:10128000E0F5838882E4F0A3F0851482851583F06D
:10129000A3F074072EF58274803FF583E0C3950AAE
:1012A000F8A3E0950BF9C3E89403E994085003020E
:1012B0001398E824FE1818E934F7F97A037B001232
:1012C000032AE824020808E934080213B52405F5C6
:1012D0000EE93400F50F021456AA0AAB0B1218508F
:1012E000851882851983E0F8A3E0F5838882EAF007
:1012F000A3EBF0AA0AAB0B12185085148285158354
:10130000EAF0A3EBF0908072C3E09402A3E09400B3
:101310004021AA0AAB0B121850EAF8EBF990807240
:10132000E0FAA3E0FB12032A851482851583E8F016
:10133000A3E9F0851482851583E0F8A3E0F9C3E8FA
:10134000942CE99401501774E528F582740039F55E
:1013500083E493851482851583F0A3E480197A05CC
:101360007B0012032AEA2482F8E43400F98514820F
:10137000851583E8F0A3E9F074072EF58274803FA9
:10138000F583E0C3950AF8A3E0950BF9C3E894034D
:10139000E9940840030212B27402C398F8740899E1
:1013A000F97A037B0012032A880E890F7402950EC6
:1013B000F87408950FF9851482851583E028FAA33F
:1013C000E039FB74572EF58274803FF583EAF0A371
:1013D000EBF074DD2EF58274003FF583E493240076
:1013E000F8A3E4933481F9EBC0E0E82470F582E9D6
:1013F0003401F583D0E0F0EAC0E0E82471F582E939
:101400003401F583D0E0F074652EF58274803FF5E9
:1014100083E0F8A3E0F974182EF51274803FF513F9
:10142000851282F583E0FAA3E0FB90806DE0FCC3B7
:10143000EA9CEB9400E850030212CD24FBF50EE980
:1014400034FFF50FC3EA94B9EB940B4009AA10AB33
:1014500011A90C120E28851682851783E0FAA3E0E5
:10146000FB74692EF58274803FF583E0F516A3E0E6
:10147000F51774021203F0E02516F8A3E03517F90A
:10148000C3E89AE99B503F74021203F0E0250EF87E
:10149000A3E0350FF9C3EA98EB99502A74242EF88B
:1014A00074803FF988828983E02401F0A3E034004E
:1014B000F088828983C3E09497A3E094004025A933
:1014C0000C120E28801EAA0AAB0B121850C3EA9504
:1014D00016EB9517500E74242EF58274803FF58319
:1014E000E4F0A3F0C3E50E950AE50F950BA2D265D3
:1014F000D033400302171A744F2EF874803FF9E876
:10150000FAE9FB8A828B83E0FCA3E0FDC3EC940A3A
:10151000ED94004003021600851282851383C08279
:10152000C08390806DE0F8D083D082C3E098A3E0C0
:1015300094005003021600745B2EF58274803FF510
:1015400083E0F50AA3E0F50B746E2EF874803FF982
:1015500088828983E0F510A3E0F511C3E50A9510B0
:10156000E50B9511500B88828983E50AF0A3E50B02
:10157000F0744B2EF51074803FF511851082F583C1
:10158000C3E0950AA3E0950B500D85108285118369
:10159000E50AF0A3E50BF074096C7001ED70548559
:1015A0001082851183C082C08388828983E0F8A37A
:1015B000E0F9D083D082E0C398FCA3E099FDC3ECAE
:1015C0009429ED9400500302166E851882851983C4
:1015D000E0F8A3E0F5838882C3E0942CA3E09401B3
:1015E000A2D265D033500302166E9080727402F05E
:1015F000A3E4F08A828B83E02401F0A3E03400F0BE
:101600008A828B83C3E0940AA3E094004027744B42
:101610002EF58274803FF583E4F0A3F0746E2EF50E
:101620008274803FF58374FFF0A3740FF08A828B7D
:1016300083E4F0A3F0851282851383E0FCA3E0FD30
:10164000C3EC941CED940C5077851482851583E0CF
:10165000F8A3E0F9C3E50E98E50F9950638512826F
:10166000851383E02401F0A3E034000211C8C3EC29
:10167000941EED94005031908072E064027002A3D9
:10168000E07025851882851983E0F8A3E0F583884A
:1016900082C3E0948DA3E09400A2D265D0334008C9
:1016A00090807274010215EFC3EC941EED9400401B
:1016B000EF908072E064027002A3E070E30215EA2A
:1016C000741C2EF874803FF990806DE0C39CE49DFB
:1016D000501988828983E0FCA3E0FDEC4D700C88F2
:1016E0008289837401F0A3E40211C888828983E4AB
:1016F000F0A3F0744B2EF58274803FF583E4F0A3E1
:10170000F0746E2EF58274803FF58374FFF0A3743D
:101710000FF08A828B83E40211C6741C2EF8748049
:101720003FF990806DE0FC851282851383E0FAA377
:10173000E0FBC3EC9AE49B40030211748882898326
:10174000E0FAA3E0FBEA4B6003021174888289830C
:101750007401F0A3E40211B1740A1203F0E0FAA3D9
:10176000E0FB121850908065E0F8A3E0F9C3EA9816
:10177000EB994023740C1203F0E0FAA3E0FB12187B
:1017800050908067E0F8A3E0F9C3EA98EB9940072E
:101790007AFF7B00021846908010E0F8A3E0F9E899
:1017A00049603D908010E0F8A3E0F9E8C333F8E920
:1017B00033F9741628F582748039F583C082C083AA
:1017C00090806DE0F8D083D082C3E098A3E09400CD
:1017D000400A908010E0FAA3E0FB806A7A0080B2B1
:1017E000750C008002050CE50CC394025054850C66
:1017F00082AA82EAC333F8E433F9741828F58274B4
:101800008039F583C082C08390806DE0FCD083D0A6
:1018100082C3E09CA3E0940040CB742428F582743A
:101820008039F583E4F0A3F0742028F582748039C0
:10183000F5837464F0A3E4F0EA2401F508E43400CD
:10184000F509AA08AB0974121203BB7F10020460E9
:10185000C3EB9400A2D265D033500BC3E49AF8E4F2
:101860009BF9E8FAE9FB2274F31203FA74F9120304
:10187000A575090053E1DF75E304908045E4F0436A
:10188000E140FAFBF5088007E060FDE4F00508E5BB
:1018900008C3940240F28A08802AE060FD908046E6
:1018A000E0F8A3E0F9851882851983E8F0A3E9F050
:1018B000851882851983E02AFAA3E03BFB908045D6
:1018C000E4F00508E508C3940440CF8A0A8B0B7442
:1018D00002780A120383AA0AAB0BEA908117F0EB95
:1018E000908116F053E1DF75E300908045E4F0430A
:1018F000E140E509C3942140057A00021B0D05096A
:10190000750800800A908045E060FAE4F00508E57B
:1019100008C3940240EF750800801EE508C333F841
:10192000E433F9851882851983E58228F582E583F9
:1019300039F583E4F0A3F00508E508C3940240DB21
:10194000750C00803EE508C333F8E433F97446288B
:10195000F582748039F583E0FCA3E0FD851882856B
:101960001983E58228F582E58339F583E02CF0A31D
:10197000E03DF00508E508C3940240C9908045E4C5
:10198000F0050CE50CC39404500B908045E060FA20
:1019900075080080E07508008060E508C333FCE44A
:1019A00033FD851882851983E5822CF8E5833DF99E
:1019B000E8FEE9FF8E828F83E0F50CA3E0F50D745D
:1019C00002780C120383850C0A850D0B8E828F839F
:1019D000E50AF0A3E50BF0E42CF874813DF9E82466
:1019E0001AF582E93400F583E50BF0E8241BF58253
:1019F000E93400F583E50AF00508E508C3940240E0
:101A000099750C00750800801F050C8E828F83E08D
:101A1000C0E074182CF58274813400F583D0E0F0B6
:101A2000E509908115F00508E508C3940250688522
:101A30000882AC82ECC333F8E433F9747428F5827D
:101A4000748039F583E0FEA3E0FF85188285198351
:101A5000E58228F582E58339F583E0F8A3E0F9EA29
:101A6000244BF50AEB3400F50BE8950AE9950B4099
:101A7000088E828F83E00480ACEA24F1F50AEB340F
:101A8000FFF50BC3E50A98E50B995003021A098E7E
:101A9000828F83E014808EE50CC3940250030218F9
:101AA000F2121DB0EA70030218F974041203F07404
:101AB00055F0908074E0F8A3E0F988828983E0C053
:101AC000E074051203F0D0E0F0908076E0F8A3E037
:101AD000F988828983E0C0E074061203F0D0E0F058
:101AE00074041203F085820885830978081204A023
:101AF00075080375090078081204A07C007D007A3F
:101B0000027B001204F774041203BB7A017B007499
:101B1000071203BB7F06020460C082C08374FD12FB
:101B200003A57A00801F8A82A8827583F0E0C0E056
:101B3000851882851983E58228F582E5833400F5CE
:101B400083D0E0F00AEAC3940340DB85188285194C
:101B500083E0645570417A0080378A82A8828518B4
:101B600082851983E58228F582E5833400F583A315
:101B7000E0C0E0E8C333F8E433F9747428F5827404
:101B80008039F583E0F8A3E0F988828983D0E0F01A
:101B90000AEAC3940240C374031203BBD083D08209
:101BA0002274EB1203FA8C0A8D0B8A088B097808D1
:101BB0001204B1010002581CBE1B611C901C53E1B1
:101BC000DF75D70475D60F908045E4F043E140FC03
:101BD000800CE060FDE4F0EC24010CED3400FDC36A
:101BE000EC9404ED9400A2D265D03340E5E060FDB2
:101BF0007C007D00804FECF8EDF9E8C333F8E93361
:101C0000F9744628F582748039F583E0FAA3E0FB85
:101C1000743828F582748039F583EAF0A3EBF07408
:101C20003028F582748039F583EAF0A3EBF0743440
:101C300028F582748039F583EAF0A3EBF0EC2401F7
:101C40000CED3400FDC3EC9402ED9400A2D265D0FB
:101C50003340A3908045E4F07A017B007F0E0204BC
:101C60006053E1DF75D71075D63F908045E4F043AF
:101C7000E140FCFDC3EC9406ED9400A2D265D033A4
:101C800050D6E060FDE4F0EC24010CED340080E37C
:101C9000908045E060FA7C007D00021D3CC3E508B1
:101CA0009AE5099B500F850C82850D83E024FFF097
:101CB000A3E034FFF0E508C333F8E50933F9850CF8
:101CC00082850D83E028F8A3E039F97A037B0012BE
:101CD000032A8814891574342EF874803FF988100B
:101CE0008911E5142508F8E5153509F9851082856F
:101CF0001183E028F8A3E039F97A037B0012032A64
:101D0000850C82850D83E8F0A3E9F08510828511AA
:101D100083E508F0A3E509F0850E82850F83E514BD
:101D2000F0A3E515F0E50A2EF582E50B3FF583E813
:101D3000F0A3E9F0EC24010CED3400FDC3EC9402B7
:101D4000ED9400A2D265D0334003021C53ECFEEDAB
:101D5000FFEEC333FEEF33FF74462EF58274803FEF
:101D6000F583E0FAA3E0FB74382EF874803FF9881D
:101D70000C890D8882F583EAF0A3EBF074302EF81D
:101D800074803FF9880E890F8882F583E0F508A3F7
:101D9000E0F509C3EA9508EB95094003021C9D850F
:101DA0000C82850D83E02401F0A3E03400021CB412
:101DB00074F31203FA74F01203A57C007D007A011B
:101DC0007B00121BA17A007B008061EAF8EBF9E846
:101DD000C333F8E933F9851882851983E58228F53C
:101DE00082E58339F583E4F0A3F074041203F0E58F
:101DF0008228F582E58339F583E4F0A3F0740C12B0
:101E000003F0E58228F582E58339F583E4F0A3F059
:101E100074081203F0E58228F582E58339F58374AE
:101E2000FFF0A3F0EA24010AEB3400FBC3EA9402BA
:101E3000EB9400A2D265D033409190812A74FFF0D8
:101E4000A3F0A3F07E007F008008EE24010EEF34A3
:101E500000FFC3EE94BCEF9402A2D265D0334003DE
:101E6000021FAC74041203F0AC82AD837A037B00D2
:101E7000121BA17A007B00021F3FEAF8EBF9E8C3CE
:101E800033F8E933F974041203F0E58228F582E5AA
:101E90008339F583E0F50AA3E0F50B740C1203F027
:101EA000E58228FCE58339FD8C828D83C3E0950AA9
:101EB000A3E0950B500B8C828D83E50AF0A3E50B14
:101EC000F074081203F0E58228F508E58339F50976
:101ED000850882F583E0F50CA3E0F50DC3E50A95CE
:101EE0000CE50B950D500D850882850983E50AF0F8
:101EF000A3E50BF08C828D83C082C0838508828528
:101F00000983E0FCA3E0FDD083D082E0C39CFCA366
:101F1000E09DFDC3EC940BED94004006EA04908133
:101F20002AF0851882851983E58228F582E58339B0
:101F3000F583ECF0A3EDF0EA24010AEB3400FBC3D7
:101F4000EA9402EB9400A2D265D0335003021E7AC9
:101F500074021203F0E0F8A3E0F985188285198372
:101F6000C3E098A3E099400A851882851983A3E00D
:101F70008001E990812BF0851882851983C3E09850
:101F8000A3E0994009851882851983E08001E890D3
:101F9000812CF090812AE0F47003021E4A7C007DBF
:101FA000007A027B00121BA17A00800D7C007D006C
:101FB0007A027B00121BA17A017B0074101203BB12
:101FC0007F0602046074F51203FA1206B61206E1E7
:101FD0001208ED7A007B0012094B90021A78081261
:101FE00002FBAA08AB09AC0AAD0B12068912065D0A
:101FF00075B1017F0402046074016970047590007A
:102000002275906022C082C083908100E024F0603D
:102010000624F06008800D7A00790180047A007946
:1020200000121FF8908120E024AB600A24AB700DF1
:1020300090804A7401F09080627401800490806204
:10204000E4F0908121E024AB600B24AB700D908014
:102050005F7401800590805F7455F0D083D0822238
:10206000C082C083908100E4F0A37410F0A37401D7
:10207000F0A3E4F0A3742DF0A3E4F0A3F0A3F0A385
:10208000F0A3F0A3F0A3F0A3F0A3F0A3F0A3F0A3B8
:10209000F0A3F0A374A1F0A3E4F090812A74FFF000
:1020A000A3F0A3F0908120E4F0A3F0D083D08222AB
:1020B00074F31203FAE9FF8A0C7402650C7005745C
:1020C000082F8001EF908100F07E00EEC3940B504A
:1020D00049750D007800790053A3FEC2B090800FBF
:1020E000E064017004E4F08015E8240108E934009C
:1020F000F9C3E894DDE9940540E3750D010E43A3AF
:102100000190021E78081202FBAA08AB09AC0AADC6
:102110000B1206897401650D60B17F06020460C070
:1021200082C083E5F3543F70FA908060E0908107AD
:10213000F0908054E090810AF0908053E090810B01
:10214000F0908055E0FAA3E090810CF0EAA3F090C3
:102150008058E090810EF0908057E090810FF090D1
:102160008059E0FAA3E0908110F0EAA3F0A374A1F3
:10217000F090811474AAF0D083D0822274E012030C
:10218000A57E0075CC08122060121FC512070BEA4D
:10219000FF121B19908074E0F8A3E0F9888289830C
:1021A000E0908118F0908076E0F8A3E0F9888289C9
:1021B00083E0908119F090022678081202FBAA08A9
:1021C000AB09AC0AAD0B12068974041203F0AC82A1
:1021D000AD83740C1203F0AA82AB8312095790816D
:1021E00000E4F0908002F0908060F0A3F0908063B3
:1021F000F0A3F0750801803074026E70077A0279DE
:10220000011220B07E00908010E0F8A3E0F9E849C8
:10221000600E7A02908010E0F91220B0E4F0A3F092
:10222000908045E4F012211F747F5508700C908057
:1022300063E02401F0A3E03400F0050812200590CB
:102240008062E064017046EF700790812074AA807C
:1022500036121867EAFF900222780C1202FBAA0CD1
:10226000AB0DAC0EAD0F12068974041203F0AC82F4
:10227000AD83740C1203F0AA82AB83120957740168
:102280006F7005908120E4F0908062E4F090805FB0
:10229000E07003022326E0640170167C007D007A62
:1022A000017B00121BA1E004F0908121E4F00222E6
:1022B00028E06455703D7C007D007A027B00121B93
:1022C000A1900222780C1202FBAA0CAB0DAC0EAD51
:1022D0000F12068974041203F0AC82AD83740C12E1
:1022E00003F0AA82AB8312095790805FE4F09081DB
:1022F0002180BA851882851983AC82AD837A037BED
:1023000000121BA1A3E090810EF08518828519832D
:10231000E090810FF074021203F0E0FAA3E09081E4
:1023200010F0EAA38087908045E0640160030222F8
:102330002574041203F085820A85830B780A12043F
:10234000A0740E1203F0AC82AD837A387B80120B3E
:102350006974021203BB120F21EAF50974FF6509C3
:10236000706CEE6003022220908010E06401700225
:10237000A3E070257A0179021220B090022A780C2D
:102380001202FBAA0CAB0DAC0EAD0F1206897A023D
:1023900079021220B07E02802F908010E0640270DB
:1023A00002A3E0601A7A0179021220B090022A7822
:1023B0000C1202FBAA0CAB0DAC0EAD0F1206897A03
:1023C0000279021220B07E0190801002221CEAC322
:1023D000948040030221F8EA70030221F8F582A8F4
:1023E00082908010E0687002A3E06021EE701E9081
:1023F0008010E8F0A3E4F07A01908010E0F9122058
:10240000B0908060E02401F0A3E03400F074026E2C
:1024100060030222207402650960030222207A020E
:1024200079011220B07E010222202D002D000F0024
:0D2430000F0004FF0FFF0F010093FF94FF4A
:00000001FF
